{
  "_format": "hh-sol-artifact-1",
  "contractName": "RelayRegistry",
  "sourceName": "contracts/RelayRegistry.sol",
  "abi": [
    {
      "inputs": [
        {
          "internalType": "address",
          "name": "tokenContract_",
          "type": "address"
        }
      ],
      "stateMutability": "nonpayable",
      "type": "constructor"
    },
    {
      "anonymous": false,
      "inputs": [
        {
          "indexed": true,
          "internalType": "address",
          "name": "previousOwner",
          "type": "address"
        },
        {
          "indexed": true,
          "internalType": "address",
          "name": "newOwner",
          "type": "address"
        }
      ],
      "name": "OwnershipTransferred",
      "type": "event"
    },
    {
      "anonymous": false,
      "inputs": [
        {
          "indexed": false,
          "internalType": "address",
          "name": "claimedBy",
          "type": "address"
        },
        {
          "indexed": false,
          "internalType": "string",
          "name": "fingerprint",
          "type": "string"
        }
      ],
      "name": "RelayRegistrationClaim",
      "type": "event"
    },
    {
      "anonymous": false,
      "inputs": [
        {
          "indexed": false,
          "internalType": "address",
          "name": "claimedBy",
          "type": "address"
        },
        {
          "indexed": false,
          "internalType": "string",
          "name": "fingerprint",
          "type": "string"
        }
      ],
      "name": "RelayRegistrationVerified",
      "type": "event"
    },
    {
      "inputs": [
        {
          "internalType": "address",
          "name": "",
          "type": "address"
        }
      ],
      "name": "claims",
      "outputs": [
        {
          "internalType": "string",
          "name": "",
          "type": "string"
        }
      ],
      "stateMutability": "view",
      "type": "function"
    },
    {
      "inputs": [],
      "name": "owner",
      "outputs": [
        {
          "internalType": "address",
          "name": "",
          "type": "address"
        }
      ],
      "stateMutability": "view",
      "type": "function"
    },
    {
      "inputs": [
        {
          "internalType": "string",
          "name": "fingerprint",
          "type": "string"
        }
      ],
      "name": "registerRelay",
      "outputs": [],
      "stateMutability": "nonpayable",
      "type": "function"
    },
    {
      "inputs": [],
      "name": "renounceOwnership",
      "outputs": [],
      "stateMutability": "nonpayable",
      "type": "function"
    },
    {
      "inputs": [],
      "name": "tokenContract",
      "outputs": [
        {
          "internalType": "address",
          "name": "",
          "type": "address"
        }
      ],
      "stateMutability": "view",
      "type": "function"
    },
    {
      "inputs": [
        {
          "internalType": "address",
          "name": "newOwner",
          "type": "address"
        }
      ],
      "name": "transferOwnership",
      "outputs": [],
      "stateMutability": "nonpayable",
      "type": "function"
    },
    {
      "inputs": [
        {
          "internalType": "string",
          "name": "",
          "type": "string"
        }
      ],
      "name": "verified",
      "outputs": [
        {
          "internalType": "address",
          "name": "",
          "type": "address"
        }
      ],
      "stateMutability": "view",
      "type": "function"
    },
    {
      "inputs": [
        {
          "internalType": "address",
          "name": "claimedBy",
          "type": "address"
        },
        {
          "internalType": "string",
          "name": "fingerprint",
          "type": "string"
        }
      ],
      "name": "verifyClaim",
      "outputs": [],
      "stateMutability": "nonpayable",
      "type": "function"
    }
  ],
  "bytecode": "0x608060405234801561001057600080fd5b50604051610bf6380380610bf683398101604081905261002f916100ad565b6100383361005d565b600180546001600160a01b0319166001600160a01b03929092169190911790556100dd565b600080546001600160a01b038381166001600160a01b0319831681178455604051919092169283917f8be0079c531659141344cd1fd0a4f28419497f9722a3daafe3b4186f6b6457e09190a35050565b6000602082840312156100bf57600080fd5b81516001600160a01b03811681146100d657600080fd5b9392505050565b610b0a806100ec6000396000f3fe608060405234801561001057600080fd5b50600436106100785760003560e01c806304cb19fc1461007d57806335ac7cb41461009257806355a373d6146100e35780635af60026146100f6578063715018a6146101095780638da5cb5b14610111578063c6788bdd14610122578063f2fde38b14610142575b600080fd5b61009061008b36600461076e565b610155565b005b6100c66100a03660046107d7565b80516020818301810180516002825292820191909301209152546001600160a01b031681565b6040516001600160a01b0390911681526020015b60405180910390f35b6001546100c6906001600160a01b031681565b610090610104366004610888565b6102cc565b61009061034c565b6000546001600160a01b03166100c6565b6101356101303660046108ca565b610360565b6040516100da91906108ec565b6100906101503660046108ca565b6103fa565b61015d610473565b61016782826104cd565b61018c5760405162461bcd60e51b815260040161018390610941565b60405180910390fd5b818160405161019c92919061096e565b604080519182900382206001600160a01b038616600090815260036020529190912090916101ca91906109b9565b6040518091039020146102195760405162461bcd60e51b8152602060048201526017602482015276119a5b99d95c9c1c9a5b9d081b9bdd0818db185a5b5959604a1b6044820152606401610183565b60408051602080820180845260008084526001600160a01b03881681526003909252929020905161024a92906105fc565b50826002838360405161025e92919061096e565b90815260405190819003602001812080546001600160a01b03939093166001600160a01b0319909316929092179091557fee4360751cb592db7356d067b1d92ec1726bfcc3cc4fa99253d7bf70b2a5ea52906102bf90859085908590610a55565b60405180910390a1505050565b6102d682826104cd565b6102f25760405162461bcd60e51b815260040161018390610941565b33600090815260036020526040902061030c908383610680565b507fea153f68f17ab68cdec8fd5c64050a2201f94b782bea804642e8ac5d47a1975533838360405161034093929190610a55565b60405180910390a15050565b610354610473565b61035e60006105ac565b565b600360205260009081526040902080546103799061097e565b80601f01602080910402602001604051908101604052809291908181526020018280546103a59061097e565b80156103f25780601f106103c7576101008083540402835291602001916103f2565b820191906000526020600020905b8154815290600101906020018083116103d557829003601f168201915b505050505081565b610402610473565b6001600160a01b0381166104675760405162461bcd60e51b815260206004820152602660248201527f4f776e61626c653a206e6577206f776e657220697320746865207a65726f206160448201526564647265737360d01b6064820152608401610183565b610470816105ac565b50565b6000546001600160a01b0316331461035e5760405162461bcd60e51b815260206004820181905260248201527f4f776e61626c653a2063616c6c6572206973206e6f7420746865206f776e65726044820152606401610183565b60008282602881146104f15760405162461bcd60e51b815260040161018390610941565b60005b8181101561059e57600083838381811061051057610510610a95565b909101356001600160f81b031916915050600360fc1b81108015906105435750603960f81b6001600160f81b0319821611155b1580156105795750604160f81b6001600160f81b03198216108015906105775750602360f91b6001600160f81b0319821611155b155b1561058b5760009450505050506105a6565b508061059681610aab565b9150506104f4565b506001925050505b92915050565b600080546001600160a01b038381166001600160a01b0319831681178455604051919092169283917f8be0079c531659141344cd1fd0a4f28419497f9722a3daafe3b4186f6b6457e09190a35050565b8280546106089061097e565b90600052602060002090601f01602090048101928261062a5760008555610670565b82601f1061064357805160ff1916838001178555610670565b82800160010185558215610670579182015b82811115610670578251825591602001919060010190610655565b5061067c9291506106f4565b5090565b82805461068c9061097e565b90600052602060002090601f0160209004810192826106ae5760008555610670565b82601f106106c75782800160ff19823516178555610670565b82800160010185558215610670579182015b828111156106705782358255916020019190600101906106d9565b5b8082111561067c57600081556001016106f5565b80356001600160a01b038116811461072057600080fd5b919050565b60008083601f84011261073757600080fd5b50813567ffffffffffffffff81111561074f57600080fd5b60208301915083602082850101111561076757600080fd5b9250929050565b60008060006040848603121561078357600080fd5b61078c84610709565b9250602084013567ffffffffffffffff8111156107a857600080fd5b6107b486828701610725565b9497909650939450505050565b634e487b7160e01b600052604160045260246000fd5b6000602082840312156107e957600080fd5b813567ffffffffffffffff8082111561080157600080fd5b818401915084601f83011261081557600080fd5b813581811115610827576108276107c1565b604051601f8201601f19908116603f0116810190838211818310171561084f5761084f6107c1565b8160405282815287602084870101111561086857600080fd5b826020860160208301376000928101602001929092525095945050505050565b6000806020838503121561089b57600080fd5b823567ffffffffffffffff8111156108b257600080fd5b6108be85828601610725565b90969095509350505050565b6000602082840312156108dc57600080fd5b6108e582610709565b9392505050565b600060208083528351808285015260005b81811015610919578581018301518582016040015282016108fd565b8181111561092b576000604083870101525b50601f01601f1916929092016040019392505050565b602080825260139082015272125b9d985b1a5908199a5b99d95c9c1c9a5b9d606a1b604082015260600190565b8183823760009101908152919050565b600181811c9082168061099257607f821691505b602082108114156109b357634e487b7160e01b600052602260045260246000fd5b50919050565b600080835481600182811c9150808316806109d557607f831692505b60208084108214156109f557634e487b7160e01b86526022600452602486fd5b818015610a095760018114610a1a57610a47565b60ff19861689528489019650610a47565b60008a81526020902060005b86811015610a3f5781548b820152908501908301610a26565b505084890196505b509498975050505050505050565b6001600160a01b03841681526040602082018190528101829052818360608301376000818301606090810191909152601f909201601f1916010192915050565b634e487b7160e01b600052603260045260246000fd5b6000600019821415610acd57634e487b7160e01b600052601160045260246000fd5b506001019056fea264697066735822122070ea7eeb1b6f46f829eb31c23a3bbc3c3331187724af6672a8912fbb48ca15d464736f6c634300080a0033",
  "linkReferences": {},
  "deployedLinkReferences": {}
}