{
  "_format": "hh-sol-artifact-1",
  "contractName": "RelayRegistry",
  "sourceName": "contracts/RelayRegistry.sol",
  "abi": [
    {
      "inputs": [
        {
          "internalType": "address",
          "name": "tokenContract_",
          "type": "address"
        }
      ],
      "stateMutability": "nonpayable",
      "type": "constructor"
    },
    {
      "anonymous": false,
      "inputs": [
        {
          "indexed": true,
          "internalType": "address",
          "name": "previousOwner",
          "type": "address"
        },
        {
          "indexed": true,
          "internalType": "address",
          "name": "newOwner",
          "type": "address"
        }
      ],
      "name": "OwnershipTransferred",
      "type": "event"
    },
    {
      "anonymous": false,
      "inputs": [
        {
          "indexed": false,
          "internalType": "address",
          "name": "claimedBy",
          "type": "address"
        },
        {
          "indexed": false,
          "internalType": "bytes20",
          "name": "fingerprint",
          "type": "bytes20"
        }
      ],
      "name": "RelayRegistrationClaim",
      "type": "event"
    },
    {
      "anonymous": false,
      "inputs": [
        {
          "indexed": false,
          "internalType": "address",
          "name": "claimedBy",
          "type": "address"
        },
        {
          "indexed": false,
          "internalType": "bytes20",
          "name": "fingerprint",
          "type": "bytes20"
        }
      ],
      "name": "RelayRegistrationVerified",
      "type": "event"
    },
    {
      "inputs": [
        {
          "internalType": "address",
          "name": "",
          "type": "address"
        }
      ],
      "name": "claims",
      "outputs": [
        {
          "internalType": "bytes20",
          "name": "",
          "type": "bytes20"
        }
      ],
      "stateMutability": "view",
      "type": "function"
    },
    {
      "inputs": [],
      "name": "owner",
      "outputs": [
        {
          "internalType": "address",
          "name": "",
          "type": "address"
        }
      ],
      "stateMutability": "view",
      "type": "function"
    },
    {
      "inputs": [
        {
          "internalType": "bytes20",
          "name": "fingerprint",
          "type": "bytes20"
        }
      ],
      "name": "registerRelay",
      "outputs": [],
      "stateMutability": "nonpayable",
      "type": "function"
    },
    {
      "inputs": [],
      "name": "renounceOwnership",
      "outputs": [],
      "stateMutability": "nonpayable",
      "type": "function"
    },
    {
      "inputs": [],
      "name": "tokenContract",
      "outputs": [
        {
          "internalType": "address",
          "name": "",
          "type": "address"
        }
      ],
      "stateMutability": "view",
      "type": "function"
    },
    {
      "inputs": [
        {
          "internalType": "address",
          "name": "newOwner",
          "type": "address"
        }
      ],
      "name": "transferOwnership",
      "outputs": [],
      "stateMutability": "nonpayable",
      "type": "function"
    },
    {
      "inputs": [
        {
          "internalType": "bytes20",
          "name": "",
          "type": "bytes20"
        }
      ],
      "name": "verified",
      "outputs": [
        {
          "internalType": "address",
          "name": "",
          "type": "address"
        }
      ],
      "stateMutability": "view",
      "type": "function"
    },
    {
      "inputs": [
        {
          "internalType": "address",
          "name": "claimedBy",
          "type": "address"
        },
        {
          "internalType": "bytes20",
          "name": "fingerprint",
          "type": "bytes20"
        }
      ],
      "name": "verifyClaim",
      "outputs": [],
      "stateMutability": "nonpayable",
      "type": "function"
    }
  ],
  "bytecode": "0x608060405234801561001057600080fd5b506040516105ec3803806105ec83398101604081905261002f916100ad565b6100383361005d565b600180546001600160a01b0319166001600160a01b03929092169190911790556100dd565b600080546001600160a01b038381166001600160a01b0319831681178455604051919092169283917f8be0079c531659141344cd1fd0a4f28419497f9722a3daafe3b4186f6b6457e09190a35050565b6000602082840312156100bf57600080fd5b81516001600160a01b03811681146100d657600080fd5b9392505050565b610500806100ec6000396000f3fe608060405234801561001057600080fd5b50600436106100785760003560e01c80631ebf523a1461007d57806355a373d6146100c3578063715018a6146100d65780638da5cb5b146100e0578063c6788bdd146100f1578063c70734df1461012d578063dc7818ef14610140578063f2fde38b14610153575b600080fd5b6100a661008b366004610420565b6002602052600090815260409020546001600160a01b031681565b6040516001600160a01b0390911681526020015b60405180910390f35b6001546100a6906001600160a01b031681565b6100de610166565b005b6000546001600160a01b03166100a6565b6101146100ff366004610459565b60036020526000908152604090205460601b81565b6040516001600160601b031990911681526020016100ba565b6100de61013b366004610474565b61017a565b6100de61014e366004610420565b610282565b6100de610161366004610459565b6102e0565b61016e610359565b61017860006103b3565b565b610182610359565b6001600160a01b03821660009081526003602052604090205460601b6001600160601b0319908116908216146101f95760405162461bcd60e51b8152602060048201526017602482015276119a5b99d95c9c1c9a5b9d081b9bdd0818db185a5b5959604a1b60448201526064015b60405180910390fd5b6001600160a01b038216600081815260036020908152604080832080546001600160a01b03199081169091556001600160601b0319861684526002909252918290208054909116909217909155517fbc9f51cd06e2797daecd9a0d23d58ced4440c31bbb9cf89a1867f2ba5ee7de039061027690849084906104a7565b60405180910390a15050565b336000818152600360205260409081902080546001600160a01b031916606085901c179055517fc817c0272cee1b04a5c9ab7ce02fced14266569ed9a343e66f941072b1bb6e72916102d59184906104a7565b60405180910390a150565b6102e8610359565b6001600160a01b03811661034d5760405162461bcd60e51b815260206004820152602660248201527f4f776e61626c653a206e6577206f776e657220697320746865207a65726f206160448201526564647265737360d01b60648201526084016101f0565b610356816103b3565b50565b6000546001600160a01b031633146101785760405162461bcd60e51b815260206004820181905260248201527f4f776e61626c653a2063616c6c6572206973206e6f7420746865206f776e657260448201526064016101f0565b600080546001600160a01b038381166001600160a01b0319831681178455604051919092169283917f8be0079c531659141344cd1fd0a4f28419497f9722a3daafe3b4186f6b6457e09190a35050565b80356001600160601b03198116811461041b57600080fd5b919050565b60006020828403121561043257600080fd5b61043b82610403565b9392505050565b80356001600160a01b038116811461041b57600080fd5b60006020828403121561046b57600080fd5b61043b82610442565b6000806040838503121561048757600080fd5b61049083610442565b915061049e60208401610403565b90509250929050565b6001600160a01b039290921682526001600160601b03191660208201526040019056fea26469706673582212202c9b317454c98f8d4415519b19368bbd309564f5964ddef34bd33a3455c21d2a64736f6c634300080a0033",
  "linkReferences": {},
  "deployedLinkReferences": {}
}