{
  "_format": "hh-sol-artifact-1",
  "contractName": "RelayRegistry",
  "sourceName": "contracts/RelayRegistry.sol",
  "abi": [
    {
      "inputs": [
        {
          "internalType": "address",
          "name": "tokenContract_",
          "type": "address"
        }
      ],
      "stateMutability": "nonpayable",
      "type": "constructor"
    },
    {
      "anonymous": false,
      "inputs": [
        {
          "indexed": true,
          "internalType": "address",
          "name": "previousOwner",
          "type": "address"
        },
        {
          "indexed": true,
          "internalType": "address",
          "name": "newOwner",
          "type": "address"
        }
      ],
      "name": "OwnershipTransferred",
      "type": "event"
    },
    {
      "anonymous": false,
      "inputs": [
        {
          "indexed": false,
          "internalType": "address",
          "name": "claimedBy",
          "type": "address"
        },
        {
          "indexed": false,
          "internalType": "bytes20",
          "name": "fingerprint",
          "type": "bytes20"
        }
      ],
      "name": "RelayRegistrationClaim",
      "type": "event"
    },
    {
      "anonymous": false,
      "inputs": [
        {
          "indexed": false,
          "internalType": "address",
          "name": "claimedBy",
          "type": "address"
        },
        {
          "indexed": false,
          "internalType": "bytes20",
          "name": "fingerprint",
          "type": "bytes20"
        }
      ],
      "name": "RelayRegistrationVerified",
      "type": "event"
    },
    {
      "inputs": [
        {
          "internalType": "address",
          "name": "",
          "type": "address"
        }
      ],
      "name": "claims",
      "outputs": [
        {
          "internalType": "bytes20",
          "name": "",
          "type": "bytes20"
        }
      ],
      "stateMutability": "view",
      "type": "function"
    },
    {
      "inputs": [],
      "name": "owner",
      "outputs": [
        {
          "internalType": "address",
          "name": "",
          "type": "address"
        }
      ],
      "stateMutability": "view",
      "type": "function"
    },
    {
      "inputs": [
        {
          "internalType": "bytes20",
          "name": "fingerprint",
          "type": "bytes20"
        }
      ],
      "name": "registerRelay",
      "outputs": [],
      "stateMutability": "nonpayable",
      "type": "function"
    },
    {
      "inputs": [],
      "name": "renounceOwnership",
      "outputs": [],
      "stateMutability": "nonpayable",
      "type": "function"
    },
    {
      "inputs": [],
      "name": "tokenContract",
      "outputs": [
        {
          "internalType": "address",
          "name": "",
          "type": "address"
        }
      ],
      "stateMutability": "view",
      "type": "function"
    },
    {
      "inputs": [
        {
          "internalType": "address",
          "name": "newOwner",
          "type": "address"
        }
      ],
      "name": "transferOwnership",
      "outputs": [],
      "stateMutability": "nonpayable",
      "type": "function"
    },
    {
      "inputs": [],
      "name": "verified",
      "outputs": [
        {
          "components": [
            {
              "internalType": "address",
              "name": "claimedBy",
              "type": "address"
            },
            {
              "internalType": "bytes20",
              "name": "fingerprint",
              "type": "bytes20"
            }
          ],
          "internalType": "struct RelayRegistry.Claim[]",
          "name": "",
          "type": "tuple[]"
        }
      ],
      "stateMutability": "view",
      "type": "function"
    },
    {
      "inputs": [
        {
          "internalType": "address",
          "name": "claimedBy",
          "type": "address"
        },
        {
          "internalType": "bytes20",
          "name": "fingerprint",
          "type": "bytes20"
        }
      ],
      "name": "verifyClaim",
      "outputs": [],
      "stateMutability": "nonpayable",
      "type": "function"
    }
  ],
  "bytecode": "0x608060405234801561001057600080fd5b506040516108b23803806108b283398101604081905261002f916100ad565b6100383361005d565b600180546001600160a01b0319166001600160a01b03929092169190911790556100dd565b600080546001600160a01b038381166001600160a01b0319831681178455604051919092169283917f8be0079c531659141344cd1fd0a4f28419497f9722a3daafe3b4186f6b6457e09190a35050565b6000602082840312156100bf57600080fd5b81516001600160a01b03811681146100d657600080fd5b9392505050565b6107c6806100ec6000396000f3fe608060405234801561001057600080fd5b50600436106100785760003560e01c806355a373d61461007d578063715018a6146100ad5780638da5cb5b146100b7578063bbb82d89146100c8578063c6788bdd146100dd578063c70734df14610119578063dc7818ef1461012c578063f2fde38b1461013f575b600080fd5b600154610090906001600160a01b031681565b6040516001600160a01b0390911681526020015b60405180910390f35b6100b5610152565b005b6000546001600160a01b0316610090565b6100d0610166565b6040516100a49190610619565b6101006100eb366004610697565b60056020526000908152604090205460601b81565b6040516001600160601b031990911681526020016100a4565b6100b56101273660046106ca565b61025f565b6100b561013a3660046106fd565b610358565b6100b561014d366004610697565b6103b6565b61015a61042f565b6101646000610489565b565b6060600061017460026104d9565b905060008167ffffffffffffffff81111561019157610191610718565b6040519080825280602002602001820160405280156101d657816020015b60408051808201909152600080825260208201528152602001906001900390816101af5790505b50905060005b82811015610258576000806101f26002846104ea565b915091506040518060400160405280826001600160a01b031681526020018360001b6bffffffffffffffffffffffff19168152508484815181106102385761023861072e565b60200260200101819052505050808061025090610744565b9150506101dc565b5092915050565b61026761042f565b6001600160a01b03821660009081526005602052604090205460601b6001600160601b0319908116908216146102de5760405162461bcd60e51b8152602060048201526017602482015276119a5b99d95c9c1c9a5b9d081b9bdd0818db185a5b5959604a1b60448201526064015b60405180910390fd5b6001600160a01b038216600090815260056020526040902080546001600160a01b031916905561031a60026001600160601b0319831684610506565b507fbc9f51cd06e2797daecd9a0d23d58ced4440c31bbb9cf89a1867f2ba5ee7de03828260405161034c92919061076d565b60405180910390a15050565b336000818152600560205260409081902080546001600160a01b031916606085901c179055517fc817c0272cee1b04a5c9ab7ce02fced14266569ed9a343e66f941072b1bb6e72916103ab91849061076d565b60405180910390a150565b6103be61042f565b6001600160a01b0381166104235760405162461bcd60e51b815260206004820152602660248201527f4f776e61626c653a206e6577206f776e657220697320746865207a65726f206160448201526564647265737360d01b60648201526084016102d5565b61042c81610489565b50565b6000546001600160a01b031633146101645760405162461bcd60e51b815260206004820181905260248201527f4f776e61626c653a2063616c6c6572206973206e6f7420746865206f776e657260448201526064016102d5565b600080546001600160a01b038381166001600160a01b0319831681178455604051919092169283917f8be0079c531659141344cd1fd0a4f28419497f9722a3daafe3b4186f6b6457e09190a35050565b60006104e482610524565b92915050565b60008080806104f9868661052f565b9097909650945050505050565b600061051c84846001600160a01b03851661055a565b949350505050565b60006104e482610577565b6000808061053d8585610581565b600081815260029690960160205260409095205494959350505050565b6000828152600284016020526040812082905561051c8484610594565b60006104e4825490565b600061058d83836105a0565b9392505050565b600061058d83836105ca565b60008260000182815481106105b7576105b761072e565b9060005260206000200154905092915050565b6000818152600183016020526040812054610611575081546001818101845560008481526020808220909301849055845484825282860190935260409020919091556104e4565b5060006104e4565b602080825282518282018190526000919060409081850190868401855b8281101561066e57815180516001600160a01b031685528601516001600160601b031916868501529284019290850190600101610636565b5091979650505050505050565b80356001600160a01b038116811461069257600080fd5b919050565b6000602082840312156106a957600080fd5b61058d8261067b565b80356001600160601b03198116811461069257600080fd5b600080604083850312156106dd57600080fd5b6106e68361067b565b91506106f4602084016106b2565b90509250929050565b60006020828403121561070f57600080fd5b61058d826106b2565b634e487b7160e01b600052604160045260246000fd5b634e487b7160e01b600052603260045260246000fd5b600060001982141561076657634e487b7160e01b600052601160045260246000fd5b5060010190565b6001600160a01b039290921682526001600160601b03191660208201526040019056fea26469706673582212206bcfd513a809af63fa6b63b06ae75c222f6b30c65974a96125919889f85eb9d164736f6c634300080a0033",
  "linkReferences": {},
  "deployedLinkReferences": {}
}