{
  "_format": "hh-sol-artifact-1",
  "contractName": "ATORNODEX",
  "sourceName": "contracts/ATORNODEX.sol",
  "abi": [
    {
      "inputs": [],
      "stateMutability": "payable",
      "type": "constructor"
    },
    {
      "anonymous": false,
      "inputs": [
        {
          "indexed": true,
          "internalType": "address",
          "name": "owner",
          "type": "address"
        },
        {
          "indexed": true,
          "internalType": "address",
          "name": "spender",
          "type": "address"
        },
        {
          "indexed": false,
          "internalType": "uint256",
          "name": "value",
          "type": "uint256"
        }
      ],
      "name": "Approval",
      "type": "event"
    },
    {
      "anonymous": false,
      "inputs": [
        {
          "indexed": false,
          "internalType": "address",
          "name": "sniper",
          "type": "address"
        }
      ],
      "name": "BotBlocked",
      "type": "event"
    },
    {
      "anonymous": false,
      "inputs": [],
      "name": "EnabledSelling",
      "type": "event"
    },
    {
      "anonymous": false,
      "inputs": [],
      "name": "EnabledTrading",
      "type": "event"
    },
    {
      "anonymous": false,
      "inputs": [
        {
          "indexed": true,
          "internalType": "address",
          "name": "account",
          "type": "address"
        },
        {
          "indexed": false,
          "internalType": "bool",
          "name": "isExcluded",
          "type": "bool"
        }
      ],
      "name": "ExcludeFromFees",
      "type": "event"
    },
    {
      "anonymous": false,
      "inputs": [
        {
          "indexed": false,
          "internalType": "address",
          "name": "_address",
          "type": "address"
        },
        {
          "indexed": false,
          "internalType": "bool",
          "name": "excluded",
          "type": "bool"
        }
      ],
      "name": "MaxTransactionExclusion",
      "type": "event"
    },
    {
      "anonymous": false,
      "inputs": [
        {
          "indexed": false,
          "internalType": "uint256",
          "name": "timestamp",
          "type": "uint256"
        }
      ],
      "name": "OwnerForcedSwapBack",
      "type": "event"
    },
    {
      "anonymous": false,
      "inputs": [
        {
          "indexed": true,
          "internalType": "address",
          "name": "previousOwner",
          "type": "address"
        },
        {
          "indexed": true,
          "internalType": "address",
          "name": "newOwner",
          "type": "address"
        }
      ],
      "name": "OwnershipTransferred",
      "type": "event"
    },
    {
      "anonymous": false,
      "inputs": [
        {
          "indexed": true,
          "internalType": "address",
          "name": "pair",
          "type": "address"
        },
        {
          "indexed": true,
          "internalType": "bool",
          "name": "value",
          "type": "bool"
        }
      ],
      "name": "SetAutomatedMarketMakerPair",
      "type": "event"
    },
    {
      "anonymous": false,
      "inputs": [
        {
          "indexed": false,
          "internalType": "uint256",
          "name": "tokensSwapped",
          "type": "uint256"
        },
        {
          "indexed": false,
          "internalType": "uint256",
          "name": "ethReceived",
          "type": "uint256"
        },
        {
          "indexed": false,
          "internalType": "uint256",
          "name": "tokensIntoLiquidity",
          "type": "uint256"
        }
      ],
      "name": "SwapAndLiquify",
      "type": "event"
    },
    {
      "anonymous": false,
      "inputs": [
        {
          "indexed": true,
          "internalType": "address",
          "name": "from",
          "type": "address"
        },
        {
          "indexed": true,
          "internalType": "address",
          "name": "to",
          "type": "address"
        },
        {
          "indexed": false,
          "internalType": "uint256",
          "name": "value",
          "type": "uint256"
        }
      ],
      "name": "Transfer",
      "type": "event"
    },
    {
      "anonymous": false,
      "inputs": [
        {
          "indexed": false,
          "internalType": "address",
          "name": "token",
          "type": "address"
        },
        {
          "indexed": false,
          "internalType": "uint256",
          "name": "amount",
          "type": "uint256"
        }
      ],
      "name": "TransferForeignToken",
      "type": "event"
    },
    {
      "anonymous": false,
      "inputs": [
        {
          "indexed": false,
          "internalType": "uint256",
          "name": "newAmount",
          "type": "uint256"
        }
      ],
      "name": "UpdatedMaxBuyAmount",
      "type": "event"
    },
    {
      "anonymous": false,
      "inputs": [
        {
          "indexed": false,
          "internalType": "uint256",
          "name": "newAmount",
          "type": "uint256"
        }
      ],
      "name": "UpdatedMaxSellAmount",
      "type": "event"
    },
    {
      "anonymous": false,
      "inputs": [
        {
          "indexed": false,
          "internalType": "uint256",
          "name": "newAmount",
          "type": "uint256"
        }
      ],
      "name": "UpdatedMaxWalletAmount",
      "type": "event"
    },
    {
      "anonymous": false,
      "inputs": [
        {
          "indexed": true,
          "internalType": "address",
          "name": "newWallet",
          "type": "address"
        }
      ],
      "name": "UpdatedOperationsAddress",
      "type": "event"
    },
    {
      "anonymous": false,
      "inputs": [
        {
          "indexed": false,
          "internalType": "uint256",
          "name": "amount",
          "type": "uint256"
        }
      ],
      "name": "UpdatedPrivateMaxSell",
      "type": "event"
    },
    {
      "anonymous": false,
      "inputs": [
        {
          "indexed": true,
          "internalType": "address",
          "name": "newWallet",
          "type": "address"
        }
      ],
      "name": "UpdatedTreasuryAddress",
      "type": "event"
    },
    {
      "inputs": [
        {
          "internalType": "address",
          "name": "",
          "type": "address"
        }
      ],
      "name": "_isExcludedMaxTransactionAmount",
      "outputs": [
        {
          "internalType": "bool",
          "name": "",
          "type": "bool"
        }
      ],
      "stateMutability": "view",
      "type": "function"
    },
    {
      "inputs": [
        {
          "internalType": "address",
          "name": "owner",
          "type": "address"
        },
        {
          "internalType": "address",
          "name": "spender",
          "type": "address"
        }
      ],
      "name": "allowance",
      "outputs": [
        {
          "internalType": "uint256",
          "name": "",
          "type": "uint256"
        }
      ],
      "stateMutability": "view",
      "type": "function"
    },
    {
      "inputs": [
        {
          "internalType": "address",
          "name": "spender",
          "type": "address"
        },
        {
          "internalType": "uint256",
          "name": "amount",
          "type": "uint256"
        }
      ],
      "name": "approve",
      "outputs": [
        {
          "internalType": "bool",
          "name": "",
          "type": "bool"
        }
      ],
      "stateMutability": "nonpayable",
      "type": "function"
    },
    {
      "inputs": [
        {
          "internalType": "address",
          "name": "",
          "type": "address"
        }
      ],
      "name": "automatedMarketMakerPairs",
      "outputs": [
        {
          "internalType": "bool",
          "name": "",
          "type": "bool"
        }
      ],
      "stateMutability": "view",
      "type": "function"
    },
    {
      "inputs": [
        {
          "internalType": "address",
          "name": "account",
          "type": "address"
        }
      ],
      "name": "balanceOf",
      "outputs": [
        {
          "internalType": "uint256",
          "name": "",
          "type": "uint256"
        }
      ],
      "stateMutability": "view",
      "type": "function"
    },
    {
      "inputs": [],
      "name": "blockForPenaltyEnd",
      "outputs": [
        {
          "internalType": "uint256",
          "name": "",
          "type": "uint256"
        }
      ],
      "stateMutability": "view",
      "type": "function"
    },
    {
      "inputs": [],
      "name": "botsCaught",
      "outputs": [
        {
          "internalType": "uint256",
          "name": "",
          "type": "uint256"
        }
      ],
      "stateMutability": "view",
      "type": "function"
    },
    {
      "inputs": [
        {
          "internalType": "address",
          "name": "",
          "type": "address"
        }
      ],
      "name": "boughtEarly",
      "outputs": [
        {
          "internalType": "bool",
          "name": "",
          "type": "bool"
        }
      ],
      "stateMutability": "view",
      "type": "function"
    },
    {
      "inputs": [],
      "name": "buyLiquidityFee",
      "outputs": [
        {
          "internalType": "uint256",
          "name": "",
          "type": "uint256"
        }
      ],
      "stateMutability": "view",
      "type": "function"
    },
    {
      "inputs": [],
      "name": "buyOperationsFee",
      "outputs": [
        {
          "internalType": "uint256",
          "name": "",
          "type": "uint256"
        }
      ],
      "stateMutability": "view",
      "type": "function"
    },
    {
      "inputs": [],
      "name": "buyTotalFees",
      "outputs": [
        {
          "internalType": "uint256",
          "name": "",
          "type": "uint256"
        }
      ],
      "stateMutability": "view",
      "type": "function"
    },
    {
      "inputs": [],
      "name": "buyTreasuryFee",
      "outputs": [
        {
          "internalType": "uint256",
          "name": "",
          "type": "uint256"
        }
      ],
      "stateMutability": "view",
      "type": "function"
    },
    {
      "inputs": [],
      "name": "decimals",
      "outputs": [
        {
          "internalType": "uint8",
          "name": "",
          "type": "uint8"
        }
      ],
      "stateMutability": "view",
      "type": "function"
    },
    {
      "inputs": [
        {
          "internalType": "address",
          "name": "spender",
          "type": "address"
        },
        {
          "internalType": "uint256",
          "name": "subtractedValue",
          "type": "uint256"
        }
      ],
      "name": "decreaseAllowance",
      "outputs": [
        {
          "internalType": "bool",
          "name": "",
          "type": "bool"
        }
      ],
      "stateMutability": "nonpayable",
      "type": "function"
    },
    {
      "inputs": [],
      "name": "disableMarkBotsForever",
      "outputs": [],
      "stateMutability": "nonpayable",
      "type": "function"
    },
    {
      "inputs": [],
      "name": "disableTransferDelay",
      "outputs": [],
      "stateMutability": "nonpayable",
      "type": "function"
    },
    {
      "inputs": [],
      "name": "earlyBuyPenaltyInEffect",
      "outputs": [
        {
          "internalType": "bool",
          "name": "",
          "type": "bool"
        }
      ],
      "stateMutability": "view",
      "type": "function"
    },
    {
      "inputs": [
        {
          "internalType": "uint256",
          "name": "blocksForPenalty",
          "type": "uint256"
        }
      ],
      "name": "enableTrading",
      "outputs": [],
      "stateMutability": "nonpayable",
      "type": "function"
    },
    {
      "inputs": [
        {
          "internalType": "address",
          "name": "account",
          "type": "address"
        },
        {
          "internalType": "bool",
          "name": "excluded",
          "type": "bool"
        }
      ],
      "name": "excludeFromFees",
      "outputs": [],
      "stateMutability": "nonpayable",
      "type": "function"
    },
    {
      "inputs": [
        {
          "internalType": "address",
          "name": "updAds",
          "type": "address"
        },
        {
          "internalType": "bool",
          "name": "isEx",
          "type": "bool"
        }
      ],
      "name": "excludeFromMaxTransaction",
      "outputs": [],
      "stateMutability": "nonpayable",
      "type": "function"
    },
    {
      "inputs": [],
      "name": "forceSwapBack",
      "outputs": [],
      "stateMutability": "nonpayable",
      "type": "function"
    },
    {
      "inputs": [],
      "name": "getEarlyBuyers",
      "outputs": [
        {
          "internalType": "address[]",
          "name": "",
          "type": "address[]"
        }
      ],
      "stateMutability": "view",
      "type": "function"
    },
    {
      "inputs": [
        {
          "internalType": "uint256",
          "name": "",
          "type": "uint256"
        }
      ],
      "name": "identifiedBots",
      "outputs": [
        {
          "internalType": "address",
          "name": "",
          "type": "address"
        }
      ],
      "stateMutability": "view",
      "type": "function"
    },
    {
      "inputs": [
        {
          "internalType": "address",
          "name": "spender",
          "type": "address"
        },
        {
          "internalType": "uint256",
          "name": "addedValue",
          "type": "uint256"
        }
      ],
      "name": "increaseAllowance",
      "outputs": [
        {
          "internalType": "bool",
          "name": "",
          "type": "bool"
        }
      ],
      "stateMutability": "nonpayable",
      "type": "function"
    },
    {
      "inputs": [
        {
          "internalType": "uint256",
          "name": "blocksForPenalty",
          "type": "uint256"
        }
      ],
      "name": "launch",
      "outputs": [],
      "stateMutability": "nonpayable",
      "type": "function"
    },
    {
      "inputs": [],
      "name": "limitsInEffect",
      "outputs": [
        {
          "internalType": "bool",
          "name": "",
          "type": "bool"
        }
      ],
      "stateMutability": "view",
      "type": "function"
    },
    {
      "inputs": [],
      "name": "lpPair",
      "outputs": [
        {
          "internalType": "address",
          "name": "",
          "type": "address"
        }
      ],
      "stateMutability": "view",
      "type": "function"
    },
    {
      "inputs": [],
      "name": "markBotsEnabled",
      "outputs": [
        {
          "internalType": "bool",
          "name": "",
          "type": "bool"
        }
      ],
      "stateMutability": "view",
      "type": "function"
    },
    {
      "inputs": [
        {
          "internalType": "address",
          "name": "wallet",
          "type": "address"
        }
      ],
      "name": "markBoughtEarly",
      "outputs": [],
      "stateMutability": "nonpayable",
      "type": "function"
    },
    {
      "inputs": [],
      "name": "maxBuyAmount",
      "outputs": [
        {
          "internalType": "uint256",
          "name": "",
          "type": "uint256"
        }
      ],
      "stateMutability": "view",
      "type": "function"
    },
    {
      "inputs": [],
      "name": "maxSellAmount",
      "outputs": [
        {
          "internalType": "uint256",
          "name": "",
          "type": "uint256"
        }
      ],
      "stateMutability": "view",
      "type": "function"
    },
    {
      "inputs": [],
      "name": "maxWallet",
      "outputs": [
        {
          "internalType": "uint256",
          "name": "",
          "type": "uint256"
        }
      ],
      "stateMutability": "view",
      "type": "function"
    },
    {
      "inputs": [],
      "name": "name",
      "outputs": [
        {
          "internalType": "string",
          "name": "",
          "type": "string"
        }
      ],
      "stateMutability": "view",
      "type": "function"
    },
    {
      "inputs": [],
      "name": "operationsAddress",
      "outputs": [
        {
          "internalType": "address",
          "name": "",
          "type": "address"
        }
      ],
      "stateMutability": "view",
      "type": "function"
    },
    {
      "inputs": [],
      "name": "owner",
      "outputs": [
        {
          "internalType": "address",
          "name": "",
          "type": "address"
        }
      ],
      "stateMutability": "view",
      "type": "function"
    },
    {
      "inputs": [
        {
          "internalType": "address",
          "name": "wallet",
          "type": "address"
        }
      ],
      "name": "removeBoughtEarly",
      "outputs": [],
      "stateMutability": "nonpayable",
      "type": "function"
    },
    {
      "inputs": [],
      "name": "removeLimits",
      "outputs": [],
      "stateMutability": "nonpayable",
      "type": "function"
    },
    {
      "inputs": [],
      "name": "renounceOwnership",
      "outputs": [],
      "stateMutability": "nonpayable",
      "type": "function"
    },
    {
      "inputs": [],
      "name": "sellLiquidityFee",
      "outputs": [
        {
          "internalType": "uint256",
          "name": "",
          "type": "uint256"
        }
      ],
      "stateMutability": "view",
      "type": "function"
    },
    {
      "inputs": [],
      "name": "sellOperationsFee",
      "outputs": [
        {
          "internalType": "uint256",
          "name": "",
          "type": "uint256"
        }
      ],
      "stateMutability": "view",
      "type": "function"
    },
    {
      "inputs": [],
      "name": "sellTotalFees",
      "outputs": [
        {
          "internalType": "uint256",
          "name": "",
          "type": "uint256"
        }
      ],
      "stateMutability": "view",
      "type": "function"
    },
    {
      "inputs": [],
      "name": "sellTreasuryFee",
      "outputs": [
        {
          "internalType": "uint256",
          "name": "",
          "type": "uint256"
        }
      ],
      "stateMutability": "view",
      "type": "function"
    },
    {
      "inputs": [
        {
          "internalType": "address",
          "name": "pair",
          "type": "address"
        },
        {
          "internalType": "bool",
          "name": "value",
          "type": "bool"
        }
      ],
      "name": "setAutomatedMarketMakerPair",
      "outputs": [],
      "stateMutability": "nonpayable",
      "type": "function"
    },
    {
      "inputs": [
        {
          "internalType": "address",
          "name": "_operationsAddress",
          "type": "address"
        }
      ],
      "name": "setOperationsAddress",
      "outputs": [],
      "stateMutability": "nonpayable",
      "type": "function"
    },
    {
      "inputs": [
        {
          "internalType": "bool",
          "name": "set",
          "type": "bool"
        }
      ],
      "name": "setTaxFree",
      "outputs": [],
      "stateMutability": "nonpayable",
      "type": "function"
    },
    {
      "inputs": [
        {
          "internalType": "address",
          "name": "_treasuryAddress",
          "type": "address"
        }
      ],
      "name": "setTreasuryAddress",
      "outputs": [],
      "stateMutability": "nonpayable",
      "type": "function"
    },
    {
      "inputs": [],
      "name": "swapEnabled",
      "outputs": [
        {
          "internalType": "bool",
          "name": "",
          "type": "bool"
        }
      ],
      "stateMutability": "view",
      "type": "function"
    },
    {
      "inputs": [],
      "name": "swapTokensAtAmount",
      "outputs": [
        {
          "internalType": "uint256",
          "name": "",
          "type": "uint256"
        }
      ],
      "stateMutability": "view",
      "type": "function"
    },
    {
      "inputs": [],
      "name": "symbol",
      "outputs": [
        {
          "internalType": "string",
          "name": "",
          "type": "string"
        }
      ],
      "stateMutability": "view",
      "type": "function"
    },
    {
      "inputs": [],
      "name": "tokensForLiquidity",
      "outputs": [
        {
          "internalType": "uint256",
          "name": "",
          "type": "uint256"
        }
      ],
      "stateMutability": "view",
      "type": "function"
    },
    {
      "inputs": [],
      "name": "tokensForOperations",
      "outputs": [
        {
          "internalType": "uint256",
          "name": "",
          "type": "uint256"
        }
      ],
      "stateMutability": "view",
      "type": "function"
    },
    {
      "inputs": [],
      "name": "tokensForTreasury",
      "outputs": [
        {
          "internalType": "uint256",
          "name": "",
          "type": "uint256"
        }
      ],
      "stateMutability": "view",
      "type": "function"
    },
    {
      "inputs": [],
      "name": "totalSupply",
      "outputs": [
        {
          "internalType": "uint256",
          "name": "",
          "type": "uint256"
        }
      ],
      "stateMutability": "view",
      "type": "function"
    },
    {
      "inputs": [],
      "name": "tradingActive",
      "outputs": [
        {
          "internalType": "bool",
          "name": "",
          "type": "bool"
        }
      ],
      "stateMutability": "view",
      "type": "function"
    },
    {
      "inputs": [],
      "name": "tradingActiveBlock",
      "outputs": [
        {
          "internalType": "uint256",
          "name": "",
          "type": "uint256"
        }
      ],
      "stateMutability": "view",
      "type": "function"
    },
    {
      "inputs": [
        {
          "internalType": "address",
          "name": "recipient",
          "type": "address"
        },
        {
          "internalType": "uint256",
          "name": "amount",
          "type": "uint256"
        }
      ],
      "name": "transfer",
      "outputs": [
        {
          "internalType": "bool",
          "name": "",
          "type": "bool"
        }
      ],
      "stateMutability": "nonpayable",
      "type": "function"
    },
    {
      "inputs": [],
      "name": "transferDelayEnabled",
      "outputs": [
        {
          "internalType": "bool",
          "name": "",
          "type": "bool"
        }
      ],
      "stateMutability": "view",
      "type": "function"
    },
    {
      "inputs": [
        {
          "internalType": "address",
          "name": "_token",
          "type": "address"
        },
        {
          "internalType": "address",
          "name": "_to",
          "type": "address"
        }
      ],
      "name": "transferForeignToken",
      "outputs": [
        {
          "internalType": "bool",
          "name": "_sent",
          "type": "bool"
        }
      ],
      "stateMutability": "nonpayable",
      "type": "function"
    },
    {
      "inputs": [
        {
          "internalType": "address",
          "name": "sender",
          "type": "address"
        },
        {
          "internalType": "address",
          "name": "recipient",
          "type": "address"
        },
        {
          "internalType": "uint256",
          "name": "amount",
          "type": "uint256"
        }
      ],
      "name": "transferFrom",
      "outputs": [
        {
          "internalType": "bool",
          "name": "",
          "type": "bool"
        }
      ],
      "stateMutability": "nonpayable",
      "type": "function"
    },
    {
      "inputs": [
        {
          "internalType": "address",
          "name": "newOwner",
          "type": "address"
        }
      ],
      "name": "transferOwnership",
      "outputs": [],
      "stateMutability": "nonpayable",
      "type": "function"
    },
    {
      "inputs": [],
      "name": "treasuryAddress",
      "outputs": [
        {
          "internalType": "address",
          "name": "",
          "type": "address"
        }
      ],
      "stateMutability": "view",
      "type": "function"
    },
    {
      "inputs": [
        {
          "internalType": "uint256",
          "name": "_operationsFee",
          "type": "uint256"
        },
        {
          "internalType": "uint256",
          "name": "_liquidityFee",
          "type": "uint256"
        },
        {
          "internalType": "uint256",
          "name": "_treasuryFee",
          "type": "uint256"
        }
      ],
      "name": "updateBuyFees",
      "outputs": [],
      "stateMutability": "nonpayable",
      "type": "function"
    },
    {
      "inputs": [
        {
          "internalType": "uint256",
          "name": "newNum",
          "type": "uint256"
        }
      ],
      "name": "updateMaxBuyAmount",
      "outputs": [],
      "stateMutability": "nonpayable",
      "type": "function"
    },
    {
      "inputs": [
        {
          "internalType": "uint256",
          "name": "newNum",
          "type": "uint256"
        }
      ],
      "name": "updateMaxSellAmount",
      "outputs": [],
      "stateMutability": "nonpayable",
      "type": "function"
    },
    {
      "inputs": [
        {
          "internalType": "uint256",
          "name": "newNum",
          "type": "uint256"
        }
      ],
      "name": "updateMaxWalletAmount",
      "outputs": [],
      "stateMutability": "nonpayable",
      "type": "function"
    },
    {
      "inputs": [
        {
          "internalType": "uint256",
          "name": "_operationsFee",
          "type": "uint256"
        },
        {
          "internalType": "uint256",
          "name": "_liquidityFee",
          "type": "uint256"
        },
        {
          "internalType": "uint256",
          "name": "_treasuryFee",
          "type": "uint256"
        }
      ],
      "name": "updateSellFees",
      "outputs": [],
      "stateMutability": "nonpayable",
      "type": "function"
    },
    {
      "inputs": [
        {
          "internalType": "uint256",
          "name": "newAmount",
          "type": "uint256"
        }
      ],
      "name": "updateSwapTokensAtAmount",
      "outputs": [],
      "stateMutability": "nonpayable",
      "type": "function"
    },
    {
      "inputs": [],
      "name": "withdrawStuckETH",
      "outputs": [],
      "stateMutability": "nonpayable",
      "type": "function"
    },
    {
      "stateMutability": "payable",
      "type": "receive"
    }
  ],
  "bytecode": "0x6000600d5560128054600162ffffff1990911681179091556014805460ff191690911790556020805461ffff1916610101179055600f60808181526e105a5c951bdc88141c9bdd1bd8dbdb608a1b60a0908152610100604052600460c09081526320aa27a960e11b60e05291926200007a91600391620005b4565b50805162000090906004906020840190620005b4565b505050620000ad620000a7620002cc60201b60201c565b620002d0565b336a52b7d2dcc80cd2e40000006064620000c982600262000670565b620000d5919062000692565b6006556064620000e782600262000670565b620000f3919062000692565b60075560646200010582600262000670565b62000111919062000692565b6008556127106200012482600562000670565b62000130919062000692565b600a5560026016819055600060178190556003601881905591620001559190620006b5565b620001619190620006b5565b6015556002601a8190556000601b8190556003601c81905591620001869190620006b5565b620001929190620006b5565b601955600b80546001600160a01b03199081163317909155600c8054909116737cca2562ff85bdd45ed4bb99ccf32148ad45ea35179055620001d682600162000322565b620001e330600162000322565b620001f261dead600162000322565b600b546200020b906001600160a01b0316600162000322565b600c5462000224906001600160a01b0316600162000322565b6200023182600162000385565b6200023e30600162000385565b6200024d61dead600162000385565b600b5462000266906001600160a01b0316600162000385565b600c546200027f906001600160a01b0316600162000385565b620002a58260646200029384604b62000670565b6200029f919062000692565b620003ee565b620002b93060646200029384601962000670565b620002c482620004d7565b50506200070d565b3390565b600580546001600160a01b038381166001600160a01b0319831681179093556040519116919082907f8be0079c531659141344cd1fd0a4f28419497f9722a3daafe3b4186f6b6457e090600090a35050565b6001600160a01b038216600081815260226020908152604091829020805460ff19168515159081179091558251938452908301527f6b4f1be9103e6cbcd38ca4a922334f2c3109b260130a6676a987f94088fd6746910160405180910390a15050565b6200038f62000556565b6001600160a01b038216600081815260216020908152604091829020805460ff191685151590811790915591519182527f9d8f7706ea1113d1a167b526eca956215946dd36cc7df39eb16180222d8b5df7910160405180910390a25050565b6001600160a01b0382166200044a5760405162461bcd60e51b815260206004820152601f60248201527f45524332303a206d696e7420746f20746865207a65726f20616464726573730060448201526064015b60405180910390fd5b80600260008282546200045e9190620006b5565b90915550506001600160a01b038216600090815260208190526040812080548392906200048d908490620006b5565b90915550506040518181526001600160a01b038316906000907fddf252ad1be2c89b69c2b068fc378daa952ba7f163c4a11628f55a4df523b3ef9060200160405180910390a35050565b620004e162000556565b6001600160a01b038116620005485760405162461bcd60e51b815260206004820152602660248201527f4f776e61626c653a206e6577206f776e657220697320746865207a65726f206160448201526564647265737360d01b606482015260840162000441565b6200055381620002d0565b50565b6005546001600160a01b03163314620005b25760405162461bcd60e51b815260206004820181905260248201527f4f776e61626c653a2063616c6c6572206973206e6f7420746865206f776e6572604482015260640162000441565b565b828054620005c290620006d0565b90600052602060002090601f016020900481019282620005e6576000855562000631565b82601f106200060157805160ff191683800117855562000631565b8280016001018555821562000631579182015b828111156200063157825182559160200191906001019062000614565b506200063f92915062000643565b5090565b5b808211156200063f576000815560010162000644565b634e487b7160e01b600052601160045260246000fd5b60008160001904831182151516156200068d576200068d6200065a565b500290565b600082620006b057634e487b7160e01b600052601260045260246000fd5b500490565b60008219821115620006cb57620006cb6200065a565b500190565b600181811c90821680620006e557607f821691505b602082108114156200070757634e487b7160e01b600052602260045260246000fd5b50919050565b61342c806200071d6000396000f3fe6080604052600436106103735760003560e01c806382aa7c68116101c8578063c5f956af116100f8578063e884f2601161009b578063e884f26014610a78578063ea4cfe1214610a8d578063ee40166e14610aad578063f11a24d314610ac3578063f2fde38b14610ad9578063f5648a4f14610af9578063f637434214610b0e578063f8b45b0514610b24578063fb002c9714610b3a57600080fd5b8063c5f956af14610976578063c876d0b914610996578063cc2ffe7c146109b0578063d257b34f146109c6578063d85ba063146109e6578063dc3f0d0f146109fc578063dd62ed3e14610a1c578063e2f4560514610a6257600080fd5b80639a7a23d61161016b5780639a7a23d614610851578063a457c2d714610871578063a62068ce14610891578063a9059cbb146108a7578063b62496f5146108c7578063bbc0c742146108f7578063c024666814610916578063c17b5b8c14610936578063c18bc1951461095657600080fd5b806382aa7c681461075f5780638366e79a1461077f57806385b12c7c1461079f57806385ecfd28146107bf57806388e765ff146107ef5780638da5cb5b1461080557806395d89b411461081a5780639a5bd2dd1461082f57600080fd5b80634f77f6c0116102a35780636a486a8e116102465780636a486a8e146106735780636b0a894c146106895780636b2fb1241461069f5780636ddd1713146106b557806370a08231146106d5578063715018a6146106f5578063751039fc1461070a5780637571336a1461071f5780638095d5641461073f57600080fd5b80634f77f6c0146105af57806351f205e4146105c557806358a6d531146105da5780635a139dd4146105f15780635bb988c9146106075780635c068a8c146106275780636605bfda1461063d57806366d602ae1461065d57600080fd5b806323b872dd1161031657806323b872dd146104a45780632be32b61146104c45780632dd9a823146104e4578063313ce567146104f9578063347daf66146105155780633950935114610535578063452ed4f114610555578063499b8394146105755780634a62bb651461059557600080fd5b806301e0beaf1461037f57806306fdde03146103ae578063095ea7b3146103d057806310d5de53146103f0578063131941cf1461042057806318160ddd1461044d5780631a8145bb1461046c5780631d5915f31461048257600080fd5b3661037a57005b600080fd5b34801561038b57600080fd5b506020546103999060ff1681565b60405190151581526020015b60405180910390f35b3480156103ba57600080fd5b506103c3610b50565b6040516103a59190612f89565b3480156103dc57600080fd5b506103996103eb366004612ffa565b610be2565b3480156103fc57600080fd5b5061039961040b366004613024565b60226020526000908152604090205460ff1681565b34801561042c57600080fd5b5061044061043b366004613046565b610bf8565b6040516103a5919061305f565b34801561045957600080fd5b506002545b6040519081526020016103a5565b34801561047857600080fd5b5061045e601e5481565b34801561048e57600080fd5b506104a261049d366004613024565b610c22565b005b3480156104b057600080fd5b506103996104bf366004613073565b610d28565b3480156104d057600080fd5b506104a26104df366004613046565b610dd2565b3480156104f057600080fd5b506104a2610f51565b34801561050557600080fd5b50604051601281526020016103a5565b34801561052157600080fd5b506104a26105303660046130bd565b610fd1565b34801561054157600080fd5b50610399610550366004612ffa565b610ff3565b34801561056157600080fd5b50600954610440906001600160a01b031681565b34801561058157600080fd5b506104a2610590366004613024565b61102f565b3480156105a157600080fd5b506012546103999060ff1681565b3480156105bb57600080fd5b5061045e601a5481565b3480156105d157600080fd5b506104a26110a7565b3480156105e657600080fd5b50600e544310610399565b3480156105fd57600080fd5b5061045e60165481565b34801561061357600080fd5b506104a2610622366004613024565b61118e565b34801561063357600080fd5b5061045e60185481565b34801561064957600080fd5b506104a2610658366004613024565b61121f565b34801561066957600080fd5b5061045e60075481565b34801561067f57600080fd5b5061045e60195481565b34801561069557600080fd5b5061045e60115481565b3480156106ab57600080fd5b5061045e601c5481565b3480156106c157600080fd5b506012546103999062010000900460ff1681565b3480156106e157600080fd5b5061045e6106f0366004613024565b611297565b34801561070157600080fd5b506104a26112b2565b34801561071657600080fd5b506104a26112c6565b34801561072b57600080fd5b506104a261073a3660046130da565b6112da565b34801561074b57600080fd5b506104a261075a366004613111565b611380565b34801561076b57600080fd5b506104a261077a366004613046565b611406565b34801561078b57600080fd5b5061039961079a36600461313d565b6114d2565b3480156107ab57600080fd5b506104a26107ba366004613046565b6116ee565b3480156107cb57600080fd5b506103996107da366004613024565b600f6020526000908152604090205460ff1681565b3480156107fb57600080fd5b5061045e60065481565b34801561081157600080fd5b50610440611782565b34801561082657600080fd5b506103c3611791565b34801561083b57600080fd5b506108446117a0565b6040516103a59190613170565b34801561085d57600080fd5b506104a261086c3660046130da565b611801565b34801561087d57600080fd5b5061039961088c366004612ffa565b6118cf565b34801561089d57600080fd5b5061045e600e5481565b3480156108b357600080fd5b506103996108c2366004612ffa565b611968565b3480156108d357600080fd5b506103996108e2366004613024565b60236020526000908152604090205460ff1681565b34801561090357600080fd5b5060125461039990610100900460ff1681565b34801561092257600080fd5b506104a26109313660046130da565b611975565b34801561094257600080fd5b506104a2610951366004613111565b6119dc565b34801561096257600080fd5b506104a2610971366004613046565b611a5d565b34801561098257600080fd5b50600c54610440906001600160a01b031681565b3480156109a257600080fd5b506014546103999060ff1681565b3480156109bc57600080fd5b5061045e601f5481565b3480156109d257600080fd5b506104a26109e1366004613046565b611bda565b3480156109f257600080fd5b5061045e60155481565b348015610a0857600080fd5b506104a2610a17366004613046565b611d03565b348015610a2857600080fd5b5061045e610a3736600461313d565b6001600160a01b03918216600090815260016020908152604080832093909416825291909152205490565b348015610a6e57600080fd5b5061045e600a5481565b348015610a8457600080fd5b506104a2611e7c565b348015610a9957600080fd5b50600b54610440906001600160a01b031681565b348015610ab957600080fd5b5061045e600d5481565b348015610acf57600080fd5b5061045e60175481565b348015610ae557600080fd5b506104a2610af4366004613024565b611e90565b348015610b0557600080fd5b506104a2611f09565b348015610b1a57600080fd5b5061045e601b5481565b348015610b3057600080fd5b5061045e60085481565b348015610b4657600080fd5b5061045e601d5481565b606060038054610b5f906131bd565b80601f0160208091040260200160405190810160405280929190818152602001828054610b8b906131bd565b8015610bd85780601f10610bad57610100808354040283529160200191610bd8565b820191906000526020600020905b815481529060010190602001808311610bbb57829003601f168201915b5050505050905090565b6000610bef338484611f5e565b50600192915050565b60108181548110610c0857600080fd5b6000918252602090912001546001600160a01b0316905081565b610c2a612082565b60205460ff16610c9b5760405162461bcd60e51b815260206004820152603160248201527f4d61726b20626f742066756e6374696f6e616c69747920686173206265656e2060448201527064697361626c656420666f72657665722160781b60648201526084015b60405180910390fd5b6001600160a01b0381166000908152600f602052604090205460ff1615610d045760405162461bcd60e51b815260206004820152601a60248201527f57616c6c657420697320616c726561647920666c61676765642e0000000000006044820152606401610c92565b6001600160a01b03166000908152600f60205260409020805460ff19166001179055565b6000610d358484846120e1565b6001600160a01b038416600090815260016020908152604080832033845290915290205482811015610dba5760405162461bcd60e51b815260206004820152602860248201527f45524332303a207472616e7366657220616d6f756e74206578636565647320616044820152676c6c6f77616e636560c01b6064820152608401610c92565b610dc78533858403611f5e565b506001949350505050565b610dda612082565b670de0b6b3a76400006103e8610def60025490565b610dfa90600561320e565b610e04919061322d565b610e0e919061322d565b811015610e6f5760405162461bcd60e51b815260206004820152602960248201527f43616e6e6f7420736574206d61782062757920616d6f756e74206c6f776572206044820152687468616e20302e352560b81b6064820152608401610c92565b670de0b6b3a76400006064610e8360025490565b610e8e90600261320e565b610e98919061322d565b610ea2919061322d565b811115610f035760405162461bcd60e51b815260206004820152602960248201527f43616e6e6f7420736574206275792073656c6c20616d6f756e7420686967686560448201526872207468616e20322560b81b6064820152608401610c92565b610f1581670de0b6b3a764000061320e565b60068190556040519081527ffcc0366804aaa8dbf88a2924100c733b70dec8445957a5d5f8ff92898de41009906020015b60405180910390a150565b610f59612082565b60205460ff16610fc55760405162461bcd60e51b815260206004820152603160248201527f4d61726b20626f742066756e6374696f6e616c69747920616c72656164792064604482015270697361626c656420666f7265766572212160781b6064820152608401610c92565b6020805460ff19169055565b610fd9612082565b602080549115156101000261ff0019909216919091179055565b3360008181526001602090815260408083206001600160a01b03871684529091528120549091610bef91859061102a90869061324f565b611f5e565b611037612082565b6001600160a01b03811661105d5760405162461bcd60e51b8152600401610c9290613267565b600b80546001600160a01b0319166001600160a01b0383169081179091556040517f4efa56652237561d0f1fd31311aeaaa41f3b754a461545ed3cf6ced5876d298290600090a250565b6110af612082565b600a546110bb30611297565b1015611131576040805162461bcd60e51b81526020600482015260248101919091527f43616e206f6e6c792073776170207768656e20746f6b656e20616d6f756e742060448201527f6973206174206f7220686967686572207468616e207265737472696374696f6e6064820152608401610c92565b6009805460ff60a01b1916600160a01b17905561114c612b52565b6009805460ff60a01b191690556040514281527f1b56c383f4f48fc992e45667ea4eabae777b9cca68b516a9562d8cda78f1bb329060200160405180910390a1565b611196612082565b6001600160a01b0381166000908152600f602052604090205460ff166111fe5760405162461bcd60e51b815260206004820152601e60248201527f57616c6c657420697320616c7265616479206e6f7420666c61676765642e00006044820152606401610c92565b6001600160a01b03166000908152600f60205260409020805460ff19169055565b611227612082565b6001600160a01b03811661124d5760405162461bcd60e51b8152600401610c9290613267565b600c80546001600160a01b0319166001600160a01b0383169081179091556040517f2e1e696cfb265fa16e1170d24ef04cb2262772bde00ecf34d80bae6722487b7f90600090a250565b6001600160a01b031660009081526020819052604090205490565b6112ba612082565b6112c46000612d51565b565b6112ce612082565b6012805460ff19169055565b6112e2612082565b80611355576009546001600160a01b03838116911614156113555760405162461bcd60e51b815260206004820152602760248201527f43616e6e6f742072656d6f766520756e697377617020706169722066726f6d2060448201526636b0bc103a3c3760c91b6064820152608401610c92565b6001600160a01b03919091166000908152602260205260409020805460ff1916911515919091179055565b611388612082565b601683905560178290556018819055806113a2838561324f565b6113ac919061324f565b6015819055601410156114015760405162461bcd60e51b815260206004820152601d60248201527f4d757374206b656570206665657320617420323025206f72206c6573730000006044820152606401610c92565b505050565b61140e612082565b601254610100900460ff16156114605760405162461bcd60e51b815260206004820152601760248201527643616e6e6f74207265656e61626c652074726164696e6760481b6044820152606401610c92565b600a8111156114815760405162461bcd60e51b8152600401610c92906132ad565b6012805462ffff0019166201010017905543600d8190556114a390829061324f565b600e556040517fa56feb2d31b9a7424db0be063fd450863979c9e2382cf5110f869bd1ad361bb790600090a150565b60006114dc612082565b6001600160a01b0383166115325760405162461bcd60e51b815260206004820152601a60248201527f5f746f6b656e20616464726573732063616e6e6f7420626520300000000000006044820152606401610c92565b6001600160a01b038316301415806115525750601254610100900460ff16155b6115bb5760405162461bcd60e51b815260206004820152603460248201527f43616e2774207769746864726177206e617469766520746f6b656e73207768696044820152736c652074726164696e672069732061637469766560601b6064820152608401610c92565b6040516370a0823160e01b81526000906001600160a01b038516906370a08231906115ea90309060040161305f565b602060405180830381865afa158015611607573d6000803e3d6000fd5b505050506040513d601f19601f8201168201806040525081019061162b91906132f4565b60405163a9059cbb60e01b81526001600160a01b038581166004830152602482018390529192509085169063a9059cbb906044016020604051808303816000875af115801561167e573d6000803e3d6000fd5b505050506040513d601f19601f820116820180604052508101906116a2919061330d565b604080516001600160a01b0387168152602081018490529193507fdeda980967fcead7b61e78ac46a4da14274af29e894d4d61e8b81ec38ab3e438910160405180910390a15092915050565b6116f6612082565b601254610100900460ff16156117625760405162461bcd60e51b815260206004820152602b60248201527f54726164696e6720697320616c7265616479206163746976652c2063616e6e6f60448201526a3a103932b630bab731b41760a91b6064820152608401610c92565b600a81106114815760405162461bcd60e51b8152600401610c92906132ad565b6005546001600160a01b031690565b606060048054610b5f906131bd565b60606010805480602002602001604051908101604052809291908181526020018280548015610bd857602002820191906000526020600020905b81546001600160a01b031681526001909101906020018083116117da575050505050905090565b611809612082565b6009546001600160a01b03838116911614156118895760405162461bcd60e51b815260206004820152603960248201527f54686520706169722063616e6e6f742062652072656d6f7665642066726f6d206044820152786175746f6d617465644d61726b65744d616b6572506169727360381b6064820152608401610c92565b6118938282612da3565b604051811515906001600160a01b038416907fffa9187bf1f18bf477bd0ea1bcbb64e93b6a98132473929edfce215cd9b16fab90600090a35050565b3360009081526001602090815260408083206001600160a01b0386168452909152812054828110156119515760405162461bcd60e51b815260206004820152602560248201527f45524332303a2064656372656173656420616c6c6f77616e63652062656c6f77604482015264207a65726f60d81b6064820152608401610c92565b61195e3385858403611f5e565b5060019392505050565b6000610bef3384846120e1565b61197d612082565b6001600160a01b038216600081815260216020908152604091829020805460ff191685151590811790915591519182527f9d8f7706ea1113d1a167b526eca956215946dd36cc7df39eb16180222d8b5df7910160405180910390a25050565b6119e4612082565b601a839055601b829055601c819055806119fe838561324f565b611a08919061324f565b6019819055601e10156114015760405162461bcd60e51b815260206004820152601d60248201527f4d757374206b656570206665657320617420333025206f72206c6573730000006044820152606401610c92565b611a65612082565b670de0b6b3a76400006103e8611a7a60025490565b611a8590600561320e565b611a8f919061322d565b611a99919061322d565b811015611afd5760405162461bcd60e51b815260206004820152602c60248201527f43616e6e6f7420736574206d61782077616c6c657420616d6f756e74206c6f7760448201526b6572207468616e20302e352560a01b6064820152608401610c92565b670de0b6b3a76400006064611b1160025490565b611b1c90600561320e565b611b26919061322d565b611b30919061322d565b811115611b935760405162461bcd60e51b815260206004820152602b60248201527f43616e6e6f7420736574206d61782077616c6c657420616d6f756e742068696760448201526a686572207468616e20352560a81b6064820152608401610c92565b611ba581670de0b6b3a764000061320e565b60088190556040519081527fefc9add9a9b7382de284ef5ad69d8ea863e2680492b21a81948c2d5f04a442bc90602001610f46565b611be2612082565b620186a0611bef60025490565b611bfa90600161320e565b611c04919061322d565b811015611c715760405162461bcd60e51b815260206004820152603560248201527f5377617020616d6f756e742063616e6e6f74206265206c6f776572207468616e60448201527410181718181892903a37ba30b61039bab838363c9760591b6064820152608401610c92565b6103e8611c7d60025490565b611c8890600161320e565b611c92919061322d565b811115611cfe5760405162461bcd60e51b815260206004820152603460248201527f5377617020616d6f756e742063616e6e6f742062652068696768657220746861604482015273371018171892903a37ba30b61039bab838363c9760611b6064820152608401610c92565b600a55565b611d0b612082565b670de0b6b3a76400006103e8611d2060025490565b611d2b90600561320e565b611d35919061322d565b611d3f919061322d565b811015611da15760405162461bcd60e51b815260206004820152602a60248201527f43616e6e6f7420736574206d61782073656c6c20616d6f756e74206c6f776572604482015269207468616e20302e352560b01b6064820152608401610c92565b670de0b6b3a76400006064611db560025490565b611dc090600261320e565b611dca919061322d565b611dd4919061322d565b811115611e355760405162461bcd60e51b815260206004820152602960248201527f43616e6e6f7420736574206d61782073656c6c20616d6f756e7420686967686560448201526872207468616e20322560b81b6064820152608401610c92565b611e4781670de0b6b3a764000061320e565b60078190556040519081527f53c4eb831d8cfeb750f1c62590d8cd30f4c6f0380d29a05caa09f0d92588560e90602001610f46565b611e84612082565b6014805460ff19169055565b611e98612082565b6001600160a01b038116611efd5760405162461bcd60e51b815260206004820152602660248201527f4f776e61626c653a206e6577206f776e657220697320746865207a65726f206160448201526564647265737360d01b6064820152608401610c92565b611f0681612d51565b50565b611f11612082565b604051600090339047908381818185875af1925050503d8060008114611f53576040519150601f19603f3d011682016040523d82523d6000602084013e611f58565b606091505b50505050565b6001600160a01b038316611fc05760405162461bcd60e51b8152602060048201526024808201527f45524332303a20617070726f76652066726f6d20746865207a65726f206164646044820152637265737360e01b6064820152608401610c92565b6001600160a01b0382166120215760405162461bcd60e51b815260206004820152602260248201527f45524332303a20617070726f766520746f20746865207a65726f206164647265604482015261737360f01b6064820152608401610c92565b6001600160a01b0383811660008181526001602090815260408083209487168084529482529182902085905590518481527f8c5be1e5ebec7d5bd14f71427d1e84f3dd0314c0f7b2291e5b200ac8c7c3b925910160405180910390a3505050565b3361208b611782565b6001600160a01b0316146112c45760405162461bcd60e51b815260206004820181905260248201527f4f776e61626c653a2063616c6c6572206973206e6f7420746865206f776e65726044820152606401610c92565b6001600160a01b0383166121075760405162461bcd60e51b8152600401610c929061332a565b6001600160a01b03821661212d5760405162461bcd60e51b8152600401610c929061336f565b6000811161217d5760405162461bcd60e51b815260206004820152601d60248201527f616d6f756e74206d7573742062652067726561746572207468616e20300000006044820152606401610c92565b601254610100900460ff16612210576001600160a01b03831660009081526021602052604090205460ff16806121cb57506001600160a01b03821660009081526021602052604090205460ff165b6122105760405162461bcd60e51b81526020600482015260166024820152752a3930b234b7339034b9903737ba1030b1ba34bb329760511b6044820152606401610c92565b600e5443101580156122295750601254610100900460ff165b15612304576001600160a01b0383166000908152600f602052604090205460ff16158061226e5750612259611782565b6001600160a01b0316826001600160a01b0316145b8061228357506001600160a01b03821661dead145b6123045760405162461bcd60e51b815260206004820152604660248201527f426f74732063616e6e6f74207472616e7366657220746f6b656e7320696e206f60448201527f72206f75742065786365707420746f206f776e6572206f722064656164206164606482015265323932b9b99760d11b608482015260a401610c92565b60125460ff161561267b57612317611782565b6001600160a01b0316836001600160a01b031614158015612351575061233b611782565b6001600160a01b0316826001600160a01b031614155b801561236857506001600160a01b03821661dead14155b801561238d57506001600160a01b03831660009081526021602052604090205460ff16155b80156123b257506001600160a01b03821660009081526021602052604090205460ff16155b1561267b5760145460ff161561249a576123cd6002436133b2565b3260009081526013602052604090205410801561240b57506123f06002436133b2565b6001600160a01b038316600090815260136020526040902054105b6124755760405162461bcd60e51b815260206004820152603560248201527f5f7472616e736665723a3a205472616e736665722044656c617920656e61626c60448201527432b21710102a393c9030b3b0b4b7103630ba32b91760591b6064820152608401610c92565b3260009081526013602052604080822043908190556001600160a01b03851683529120555b6001600160a01b03831660009081526023602052604090205460ff1680156124db57506001600160a01b03821660009081526022602052604090205460ff16155b1561257c576006548111156125435760405162461bcd60e51b815260206004820152602860248201527f427579207472616e7366657220616d6f756e742065786365656473207468652060448201526736b0bc10313abc9760c11b6064820152608401610c92565b60085461254f83611297565b612559908361324f565b11156125775760405162461bcd60e51b8152600401610c92906133c9565b61267b565b6001600160a01b03821660009081526023602052604090205460ff1680156125bd57506001600160a01b03831660009081526022602052604090205460ff16155b15612627576007548111156125775760405162461bcd60e51b815260206004820152602a60248201527f53656c6c207472616e7366657220616d6f756e742065786365656473207468656044820152691036b0bc1039b2b6361760b11b6064820152608401610c92565b6001600160a01b03821660009081526022602052604090205460ff1661267b5760085461265383611297565b61265d908361324f565b111561267b5760405162461bcd60e51b8152600401610c92906133c9565b600061268630611297565b600a54909150811080159081906126a5575060125462010000900460ff165b80156126bb5750600954600160a01b900460ff16155b80156126df57506001600160a01b03841660009081526023602052604090205460ff165b1561270d576009805460ff60a01b1916600160a01b1790556126ff612b52565b6009805460ff60a01b191690555b6001600160a01b03851660009081526021602052604090205460019060ff168061274f57506001600160a01b03851660009081526021602052604090205460ff165b15612758575060005b60008115612b3e57600e544310801561278957506001600160a01b03871660009081526023602052604090205460ff165b80156127ae57506001600160a01b03861660009081526023602052604090205460ff16155b80156127d357506001600160a01b03861660009081526021602052604090205460ff16155b80156127e157506000601554115b15612978576001600160a01b0386166000908152600f602052604090205460ff166128c8576001600160a01b0386166000908152600f60205260408120805460ff19166001908117909155601180549192909161283f90849061324f565b9091555050601080546001810182556000919091527f1b6847dc741a1b0cd08d278845f9d819d87b734759afb55fe2de5cb82a9ae6720180546001600160a01b0319166001600160a01b0388161790556040517fe6d87a7136763cfaf05e7906bfe30079dfc11c4af7a01c3a05819986f6600f9d906128bf90889061305f565b60405180910390a15b60646128d586605061320e565b6128df919061322d565b9050601554601754826128f2919061320e565b6128fc919061322d565b601e600082825461290d919061324f565b9091555050601554601654612922908361320e565b61292c919061322d565b601d600082825461293d919061324f565b9091555050601554601854612952908361320e565b61295c919061322d565b601f600082825461296d919061324f565b90915550612b119050565b6001600160a01b03861660009081526023602052604090205460ff1680156129a257506000601954115b15612a34576064601954866129b7919061320e565b6129c1919061322d565b9050601954601b54826129d4919061320e565b6129de919061322d565b601e60008282546129ef919061324f565b9091555050601954601a54612a04908361320e565b612a0e919061322d565b601d6000828254612a1f919061324f565b9091555050601954601c54612952908361320e565b6001600160a01b03871660009081526023602052604090205460ff168015612a5e57506000601554115b15612b1157606460155486612a73919061320e565b612a7d919061322d565b905060155460175482612a90919061320e565b612a9a919061322d565b601e6000828254612aab919061324f565b9091555050601554601654612ac0908361320e565b612aca919061322d565b601d6000828254612adb919061324f565b9091555050601554601854612af0908361320e565b612afa919061322d565b601f6000828254612b0b919061324f565b90915550505b602054610100900460ff16612b3e578015612b3157612b31873083612dd1565b612b3b81866133b2565b94505b612b49878787612dd1565b50505050505050565b6000612b5d30611297565b90506000601f54601d54601e54612b74919061324f565b612b7e919061324f565b90506000818310612b8f5781612b91565b825b905080612b9d57505050565b600a54612bab90601e61320e565b811115612bc357600a54612bc090601e61320e565b90505b600080600284601e5485612bd7919061320e565b612be1919061322d565b612beb919061322d565b9050612bfa611f0682856133b2565b601e5447908190600090612c109060029061322d565b612c1a90886133b2565b601d54612c27908561320e565b612c31919061322d565b905060006002601e54612c44919061322d565b612c4e90896133b2565b601f54612c5b908661320e565b612c65919061322d565b9050612c71818361324f565b612c7b90846133b2565b6000601e819055601d819055601f5592508415801590612c9b5750600083115b50600c546040516001600160a01b03909116908290600081818185875af1925050503d8060008114612ce9576040519150601f19603f3d011682016040523d82523d6000602084013e612cee565b606091505b5050600b546040519197506001600160a01b0316904790600081818185875af1925050503d8060008114612d3e576040519150601f19603f3d011682016040523d82523d6000602084013e612d43565b606091505b505050505050505050505050565b600580546001600160a01b038381166001600160a01b0319831681179093556040519116919082907f8be0079c531659141344cd1fd0a4f28419497f9722a3daafe3b4186f6b6457e090600090a35050565b6001600160a01b0382166000908152602360205260409020805460ff19168215151790556118938282612f26565b6001600160a01b038316612df75760405162461bcd60e51b8152600401610c929061332a565b6001600160a01b038216612e1d5760405162461bcd60e51b8152600401610c929061336f565b6001600160a01b03831660009081526020819052604090205481811015612e955760405162461bcd60e51b815260206004820152602660248201527f45524332303a207472616e7366657220616d6f756e7420657863656564732062604482015265616c616e636560d01b6064820152608401610c92565b6001600160a01b03808516600090815260208190526040808220858503905591851681529081208054849290612ecc90849061324f565b92505081905550826001600160a01b0316846001600160a01b03167fddf252ad1be2c89b69c2b068fc378daa952ba7f163c4a11628f55a4df523b3ef84604051612f1891815260200190565b60405180910390a350505050565b6001600160a01b038216600081815260226020908152604091829020805460ff19168515159081179091558251938452908301527f6b4f1be9103e6cbcd38ca4a922334f2c3109b260130a6676a987f94088fd6746910160405180910390a15050565b600060208083528351808285015260005b81811015612fb657858101830151858201604001528201612f9a565b81811115612fc8576000604083870101525b50601f01601f1916929092016040019392505050565b80356001600160a01b0381168114612ff557600080fd5b919050565b6000806040838503121561300d57600080fd5b61301683612fde565b946020939093013593505050565b60006020828403121561303657600080fd5b61303f82612fde565b9392505050565b60006020828403121561305857600080fd5b5035919050565b6001600160a01b0391909116815260200190565b60008060006060848603121561308857600080fd5b61309184612fde565b925061309f60208501612fde565b9150604084013590509250925092565b8015158114611f0657600080fd5b6000602082840312156130cf57600080fd5b813561303f816130af565b600080604083850312156130ed57600080fd5b6130f683612fde565b91506020830135613106816130af565b809150509250929050565b60008060006060848603121561312657600080fd5b505081359360208301359350604090920135919050565b6000806040838503121561315057600080fd5b61315983612fde565b915061316760208401612fde565b90509250929050565b6020808252825182820181905260009190848201906040850190845b818110156131b15783516001600160a01b03168352928401929184019160010161318c565b50909695505050505050565b600181811c908216806131d157607f821691505b602082108114156131f257634e487b7160e01b600052602260045260246000fd5b50919050565b634e487b7160e01b600052601160045260246000fd5b6000816000190483118215151615613228576132286131f8565b500290565b60008261324a57634e487b7160e01b600052601260045260246000fd5b500490565b60008219821115613262576132626131f8565b500190565b60208082526026908201527f5f6f7065726174696f6e734164647265737320616464726573732063616e6e6f60408201526507420626520360d41b606082015260800190565b60208082526027908201527f43616e6e6f74206d616b652070656e616c747920626c6f636b73206d6f72652060408201526607468616e2031360cc1b606082015260800190565b60006020828403121561330657600080fd5b5051919050565b60006020828403121561331f57600080fd5b815161303f816130af565b60208082526025908201527f45524332303a207472616e736665722066726f6d20746865207a65726f206164604082015264647265737360d81b606082015260800190565b60208082526023908201527f45524332303a207472616e7366657220746f20746865207a65726f206164647260408201526265737360e81b606082015260800190565b6000828210156133c4576133c46131f8565b500390565b60208082526013908201527213585e0815d85b1b195d08115e18d959591959606a1b60408201526060019056fea26469706673582212207bfe107edf5be32ca0c2adb87b3724a5072f7845529b8f57d00c69f6738fcc3564736f6c634300080a0033",
  "linkReferences": {},
  "deployedLinkReferences": {}
}